{
  "_format": "hh-sol-artifact-1",
  "abi": [
    {
      "inputs": [
        {
          "internalType": "address",
          "name": "account",
          "type": "address"
        }
      ],
      "name": "AddressNotWhitelisted",
      "type": "error"
    },
    {
      "inputs": [],
      "name": "DeploymentFailed",
      "type": "error"
    },
    {
      "inputs": [],
      "name": "WhitelistingDisabled",
      "type": "error"
    },
    {
      "anonymous": false,
      "inputs": [
        {
          "indexed": true,
          "internalType": "address",
          "name": "account",
          "type": "address"
        }
      ],
      "name": "AddedToWhitelist",
      "type": "event"
    },
    {
      "anonymous": false,
      "inputs": [
        {
          "indexed": true,
          "internalType": "address",
          "name": "contractAddress",
          "type": "address"
        }
      ],
      "name": "ContractDeployed",
      "type": "event"
    },
    {
      "anonymous": false,
      "inputs": [
        {
          "indexed": true,
          "internalType": "address",
          "name": "account",
          "type": "address"
        }
      ],
      "name": "RemovedFromWhitelist",
      "type": "event"
    },
    {
      "anonymous": false,
      "inputs": [],
      "name": "WhitelistDisabled",
      "type": "event"
    },
    {
      "anonymous": false,
      "inputs": [],
      "name": "WhitelistEnabled",
      "type": "event"
    },
    {
      "inputs": [
        {
          "internalType": "bytes",
          "name": "bytecode",
          "type": "bytes"
        }
      ],
      "name": "deployContract",
      "outputs": [
        {
          "internalType": "address",
          "name": "",
          "type": "address"
        }
      ],
      "stateMutability": "payable",
      "type": "function"
    }
  ],
  "bytecode": "0x608060405234801561001057600080fd5b50610393806100206000396000f3fe60806040526004361061001e5760003560e01c8063798133dd14610023575b600080fd5b6100366100313660046102ac565b61005f565b60405173ffffffffffffffffffffffffffffffffffffffff909116815260200160405180910390f35b7f2e459afc545a497444ec1e928e243b859dc9f3712f30c747b6899596ddfe56035460009060ff1680156100c257503360009081527f2e459afc545a497444ec1e928e243b859dc9f3712f30c747b6899596ddfe5602602052604090205460ff16155b156100ff576040517feadb950f00000000000000000000000000000000000000000000000000000000815233600482015260240160405180910390fd5b7f2e459afc545a497444ec1e928e243b859dc9f3712f30c747b6899596ddfe56035460ff161561013857610133333461025d565b6101c0565b7f7cee013df564c334aa8c7ed951f5113b8e2d8bba68db12835101858826ad62065473ffffffffffffffffffffffffffffffffffffffff16156101b6576101337f7cee013df564c334aa8c7ed951f5113b8e2d8bba68db12835101858826ad62065473ffffffffffffffffffffffffffffffffffffffff163461025d565b6101c0333461025d565b6040805133602082015242918101919091526000906060016040516020818303038152906040528051906020012060001c90506000818451602086016000f59050803b6102155763301164256000526004601cfd5b60405173ffffffffffffffffffffffffffffffffffffffff8216907f8ffcdc15a283d706d38281f500270d8b5a656918f555de0913d7455e3e6bc1bf90600090a29392505050565b60008060008084865af16102795763b12d13eb6000526004601cfd5b5050565b7f4e487b7100000000000000000000000000000000000000000000000000000000600052604160045260246000fd5b6000602082840312156102be57600080fd5b813567ffffffffffffffff808211156102d657600080fd5b818401915084601f8301126102ea57600080fd5b8135818111156102fc576102fc61027d565b604051601f8201601f19908116603f011681019083821181831017156103245761032461027d565b8160405282815287602084870101111561033d57600080fd5b82602086016020830137600092810160200192909252509594505050505056fea26469706673582212202a3ebc399c66d15a137768e8b9803579bfa61488865f8bf2864f12141bfd1ec564736f6c63430008110033",
  "contractName": "BitbondFactory",
  "deployedLinkReferences": {},
  "linkReferences": {},
  "sourceName": "contracts/diamond/factory/BitbondFactory.sol"
}